{
  "contractName": "NotesContract",
  "abi": [
    {
      "inputs": [],
      "stateMutability": "nonpayable",
      "type": "constructor"
    },
    {
      "anonymous": false,
      "inputs": [
        {
          "indexed": false,
          "internalType": "uint256",
          "name": "_id",
          "type": "uint256"
        }
      ],
      "name": "NoteAdded",
      "type": "event"
    },
    {
      "anonymous": false,
      "inputs": [
        {
          "indexed": false,
          "internalType": "uint256",
          "name": "_id",
          "type": "uint256"
        }
      ],
      "name": "NoteDeleted",
      "type": "event"
    },
    {
      "anonymous": false,
      "inputs": [
        {
          "indexed": false,
          "internalType": "uint256",
          "name": "_id",
          "type": "uint256"
        }
      ],
      "name": "NoteEdited",
      "type": "event"
    },
    {
      "inputs": [
        {
          "internalType": "uint256",
          "name": "",
          "type": "uint256"
        }
      ],
      "name": "notes",
      "outputs": [
        {
          "internalType": "uint256",
          "name": "id",
          "type": "uint256"
        },
        {
          "internalType": "string",
          "name": "noteTitle",
          "type": "string"
        },
        {
          "internalType": "string",
          "name": "noteContent",
          "type": "string"
        },
        {
          "internalType": "uint256",
          "name": "timeStamp",
          "type": "uint256"
        }
      ],
      "stateMutability": "view",
      "type": "function",
      "constant": true
    },
    {
      "inputs": [],
      "name": "notesCount",
      "outputs": [
        {
          "internalType": "uint256",
          "name": "",
          "type": "uint256"
        }
      ],
      "stateMutability": "view",
      "type": "function",
      "constant": true
    },
    {
      "inputs": [
        {
          "internalType": "string",
          "name": "_noteTitle",
          "type": "string"
        },
        {
          "internalType": "string",
          "name": "_noteContent",
          "type": "string"
        },
        {
          "internalType": "uint256",
          "name": "timeStamp",
          "type": "uint256"
        }
      ],
      "name": "addNote",
      "outputs": [],
      "stateMutability": "nonpayable",
      "type": "function"
    },
    {
      "inputs": [
        {
          "internalType": "uint256",
          "name": "_id",
          "type": "uint256"
        }
      ],
      "name": "deleteNote",
      "outputs": [],
      "stateMutability": "nonpayable",
      "type": "function"
    },
    {
      "inputs": [
        {
          "internalType": "uint256",
          "name": "_id",
          "type": "uint256"
        },
        {
          "internalType": "string",
          "name": "_noteTitle",
          "type": "string"
        },
        {
          "internalType": "string",
          "name": "_noteContent",
          "type": "string"
        }
      ],
      "name": "editNote",
      "outputs": [],
      "stateMutability": "nonpayable",
      "type": "function"
    }
  ],
  "bytecode": "0x608060405234801561001057600080fd5b5060008081905550610c16806100276000396000f3fe608060405234801561001057600080fd5b50600436106100575760003560e01c80630700e0801461005c5780635238d5c61461007857806361c3a7e61461009457806385445449146100c7578063c47177f4146100e5575b600080fd5b6100766004803603810190610071919061064c565b610101565b005b610092600480360381019061008d91906106d7565b6101d0565b005b6100ae60048036038101906100a99190610762565b610299565b6040516100be949392919061081d565b60405180910390f35b6100cf6103d9565b6040516100dc9190610870565b60405180910390f35b6100ff60048036038101906100fa9190610762565b6103df565b005b604051806080016040528060005481526020018481526020018381526020018281525060016000805481526020019081526020016000206000820151816000015560208201518160010190816101579190610a97565b50604082015181600201908161016d9190610a97565b50606082015181600301559050507f47845bae1c19c06fc781e2d5e8c917f9d4d91f4d7cfceda2946276046a0aa8ec6000546040516101ac9190610870565b60405180910390a16000808154809291906101c690610b98565b9190505550505050565b60405180608001604052808481526020018381526020018281526020016001600086815260200190815260200160002060030154815250600160008581526020019081526020016000206000820151816000015560208201518160010190816102399190610a97565b50604082015181600201908161024f9190610a97565b50606082015181600301559050507f47845bae1c19c06fc781e2d5e8c917f9d4d91f4d7cfceda2946276046a0aa8ec8360405161028c9190610870565b60405180910390a1505050565b60016020528060005260406000206000915090508060000154908060010180546102c2906108ba565b80601f01602080910402602001604051908101604052809291908181526020018280546102ee906108ba565b801561033b5780601f106103105761010080835404028352916020019161033b565b820191906000526020600020905b81548152906001019060200180831161031e57829003601f168201915b505050505090806002018054610350906108ba565b80601f016020809104026020016040519081016040528092919081815260200182805461037c906108ba565b80156103c95780601f1061039e576101008083540402835291602001916103c9565b820191906000526020600020905b8154815290600101906020018083116103ac57829003601f168201915b5050505050908060030154905084565b60005481565b6001600082815260200190815260200160002060008082016000905560018201600061040b919061045f565b60028201600061041b919061045f565b600382016000905550507f89af6ba62ab348dc535a3187c267090f834c868a3820cd552a7110c3dc3eedb8816040516104549190610870565b60405180910390a150565b50805461046b906108ba565b6000825580601f1061047d575061049c565b601f01602090049060005260206000209081019061049b919061049f565b5b50565b5b808211156104b85760008160009055506001016104a0565b5090565b6000604051905090565b600080fd5b600080fd5b600080fd5b600080fd5b6000601f19601f8301169050919050565b7f4e487b7100000000000000000000000000000000000000000000000000000000600052604160045260246000fd5b610523826104da565b810181811067ffffffffffffffff82111715610542576105416104eb565b5b80604052505050565b60006105556104bc565b9050610561828261051a565b919050565b600067ffffffffffffffff821115610581576105806104eb565b5b61058a826104da565b9050602081019050919050565b82818337600083830152505050565b60006105b96105b484610566565b61054b565b9050828152602081018484840111156105d5576105d46104d5565b5b6105e0848285610597565b509392505050565b600082601f8301126105fd576105fc6104d0565b5b813561060d8482602086016105a6565b91505092915050565b6000819050919050565b61062981610616565b811461063457600080fd5b50565b60008135905061064681610620565b92915050565b600080600060608486031215610665576106646104c6565b5b600084013567ffffffffffffffff811115610683576106826104cb565b5b61068f868287016105e8565b935050602084013567ffffffffffffffff8111156106b0576106af6104cb565b5b6106bc868287016105e8565b92505060406106cd86828701610637565b9150509250925092565b6000806000606084860312156106f0576106ef6104c6565b5b60006106fe86828701610637565b935050602084013567ffffffffffffffff81111561071f5761071e6104cb565b5b61072b868287016105e8565b925050604084013567ffffffffffffffff81111561074c5761074b6104cb565b5b610758868287016105e8565b9150509250925092565b600060208284031215610778576107776104c6565b5b600061078684828501610637565b91505092915050565b61079881610616565b82525050565b600081519050919050565b600082825260208201905092915050565b60005b838110156107d85780820151818401526020810190506107bd565b60008484015250505050565b60006107ef8261079e565b6107f981856107a9565b93506108098185602086016107ba565b610812816104da565b840191505092915050565b6000608082019050610832600083018761078f565b818103602083015261084481866107e4565b9050818103604083015261085881856107e4565b9050610867606083018461078f565b95945050505050565b6000602082019050610885600083018461078f565b92915050565b7f4e487b7100000000000000000000000000000000000000000000000000000000600052602260045260246000fd5b600060028204905060018216806108d257607f821691505b6020821081036108e5576108e461088b565b5b50919050565b60008190508160005260206000209050919050565b60006020601f8301049050919050565b600082821b905092915050565b60006008830261094d7fffffffffffffffffffffffffffffffffffffffffffffffffffffffffffffffff82610910565b6109578683610910565b95508019841693508086168417925050509392505050565b6000819050919050565b600061099461098f61098a84610616565b61096f565b610616565b9050919050565b6000819050919050565b6109ae83610979565b6109c26109ba8261099b565b84845461091d565b825550505050565b600090565b6109d76109ca565b6109e28184846109a5565b505050565b5b81811015610a06576109fb6000826109cf565b6001810190506109e8565b5050565b601f821115610a4b57610a1c816108eb565b610a2584610900565b81016020851015610a34578190505b610a48610a4085610900565b8301826109e7565b50505b505050565b600082821c905092915050565b6000610a6e60001984600802610a50565b1980831691505092915050565b6000610a878383610a5d565b9150826002028217905092915050565b610aa08261079e565b67ffffffffffffffff811115610ab957610ab86104eb565b5b610ac382546108ba565b610ace828285610a0a565b600060209050601f831160018114610b015760008415610aef578287015190505b610af98582610a7b565b865550610b61565b601f198416610b0f866108eb565b60005b82811015610b3757848901518255600182019150602085019450602081019050610b12565b86831015610b545784890151610b50601f891682610a5d565b8355505b6001600288020188555050505b505050505050565b7f4e487b7100000000000000000000000000000000000000000000000000000000600052601160045260246000fd5b6000610ba382610616565b91507fffffffffffffffffffffffffffffffffffffffffffffffffffffffffffffffff8203610bd557610bd4610b69565b5b60018201905091905056fea2646970667358221220668ccbd50aeed921d42c94f0e5faafdf3ae7ff5f6e4c6b07a28631a57fae341464736f6c63430008130033",
  "immutableReferences": {},
  "source": "// SPDX-License-Identifier: GPL-3.0\r\npragma solidity ^0.8.19;\r\n\r\ncontract NotesContract {\r\n    uint256 public notesCount;\r\n\r\n    struct Notes {\r\n        uint256 id;\r\n        string noteTitle;\r\n        string noteContent;\r\n        uint256 timeStamp;\r\n    }\r\n\r\n    mapping(uint256 => Notes) public notes;\r\n\r\n    constructor() public {\r\n        notesCount = 0;\r\n    }\r\n\r\n    event NoteAdded(uint256 _id);\r\n    event NoteDeleted(uint256 _id);\r\n    event NoteEdited(uint256 _id);\r\n\r\n\t\r\n\t\r\n    function addNote(\r\n        string memory _noteTitle,\r\n        string memory _noteContent,\r\n        uint256 timeStamp\r\n    ) public {\r\n        notes[notesCount] = Notes(\r\n            notesCount,\r\n            _noteTitle,\r\n            _noteContent,\r\n            timeStamp\r\n        );\r\n        emit NoteAdded(notesCount);\r\n        notesCount++;\r\n    }\r\n\r\n    function deleteNote(uint256 _id) public {\r\n        delete notes[_id];\r\n        emit NoteDeleted(_id);\r\n    }\r\n\r\n\r\n    function editNote(\r\n        uint256 _id,\r\n        string memory _noteTitle,\r\n        string memory _noteContent\r\n    ) public {\r\n        notes[_id] = Notes(_id, _noteTitle, _noteContent, notes[_id].timeStamp);\r\n        emit NoteAdded(_id);\r\n    }\r\n\r\n\r\n}\r\n",
  "sourcePath": "D:\\BlockChain\\contracts\\contracts\\NotesContract.sol",
  "compiler": {
    "name": "solc",
    "version": "0.8.19+commit.7dd6d404.Emscripten.clang"
  },
  "schemaVersion": "3.4.13",
  "updatedAt": "2023-03-18T10:08:24.543Z",
  "networkType": "ethereum",
  "devdoc": {
    "kind": "dev",
    "methods": {},
    "version": 1
  },
  "userdoc": {
    "kind": "user",
    "methods": {},
    "version": 1
  }
}